:020000040800F2
:10000000000002208D1B0008091B00080B1B0008C4
:100010000D1B00080F1B0008111B0008000000004A
:10002000000000000000000000000000131B00089A
:10003000151B000800000000171B0008191B000812
:10004000DD1B0008DD1B0008DD1B0008DD1B0008B0
:10005000DD1B0008DD1B0008DD1B0008DD1B0008A0
:10006000DD1B0008DD1B0008DD1B0008DD1B000890
:10007000DD1B0008DD1B0008DD1B0008DD1B000880
:10008000DD1B0008DD1B0008DD1B0008DD1B000870
:10009000DD1B0008DD1B0008DD1B0008DD1B000860
:1000A000DD1B0008DD1B0008DD1B0008DD1B000850
:1000B000DD1B0008DD1B0008DD1B0008DD1B000840
:1000C000DD1B0008DD1B0008DD1B0008DD1B000830
:1000D000DD1B0008DD1B0008211B0008311B000888
:1000E000DD1B0008DD1B0008DD1B0008DD1B000810
:1000F000DD1B0008DD1B0008DD1B0008DD1B000800
:10010000DD1B0008DD1B0008DD1B0008DD1B0008EF
:10011000DD1B0008DD1B0008DD1B0008DD1B0008DF
:10012000DD1B0008DD1B0008DD1B0008DD1B0008CF
:10013000DD1B0008DD1B0008DD1B0008DD1B0008BF
:10014000DD1B0008DD1B0008DD1B0008DD1B0008AF
:10015000DD1B0008DD1B0008DD1B0008DD1B00089F
:10016000DD1B0008DD1B0008DD1B0008DD1B00088F
:10017000DD1B0008DD1B0008DD1B0008000000007F
:08018000DD1B0008DD1B000877
:1001880010B5054C237833B9044B13B10448AFF3C9
:1001980000800123237010BD9C0000200000000097
:1001A800581C000808B5034B1BB103490348AFF3BB
:1001B800008008BD00000000A0000020581C0008B6
:1001C80053B94AB9002908BF00281CBF4FF0FF31B6
:1001D8004FF0FF3000F072B9ADF1080C6DE904CEB4
:1001E80000F006F8DDF804E0DDE9022304B070470A
:1001F8002DE9F047089E04468846002B4BD18A42D9
:10020800154667D9B2FA82F24AB1C2F1200701FA5B
:1002180002F320FA07F7954047EA030894404FEAAB
:10022800154E230CB8FBFEF71FFA85FC0EFB17884A
:1002380043EA084307FB0CF1994209D9EB1807F187
:10024800FF3080F01B81994240F21881023F2B4415
:100258005B1AA4B2B3FBFEF00EFB103344EA03446E
:1002680000FB0CFCA44509D92C1900F1FF3380F0E0
:100278000781A44540F2048102382C4440EA074033
:10028800A4EB0C0400271EB1D4400023C6E90043A8
:100298003946BDE8F0878B4209D9002E00F0EB8083
:1002A8000027C6E9000138463946BDE8F087B3FAA9
:1002B80083F7002F47D18B4202D3824200F2FA80A3
:1002C800841A61EB030301209846002EE0D0C6E9AA
:1002D8000048DDE702B9FFDEB2FA82F2002A40F0F8
:1002E8008F80491B4FEA154E1FFA85F80127B1FB8D
:1002F800FEFC230C0EFB1C1143EA014308FB0CF126
:10030800994207D9EB180CF1FF3002D2994200F25A
:10031800CD808446591AA3B2B1FBFEF00EFB10142F
:1003280043EA044408FB00F8A04507D92C1900F15A
:10033800FF3302D2A04500F2B6801846A4EB0804A9
:1003480040EA0C409FE7C7F1200CBB4022FA0CFEA4
:100358004EEA030E01FA07F420FA0CF521FA0CF321
:100368004FEA1E482543B3FBF8F92C0C08FB193358
:100378001FFA8EFA44EA034309FB0AF49C4202FA84
:1003880007F200FA07F10BD91EEB030309F1FF305E
:1003980080F087809C4240F28480A9F1020973446E
:1003A8001B1BADB2B3FBF8F008FB103345EA03445E
:1003B80000FB0AFAA24508D91EEB040400F1FF333A
:1003C8006BD2A24569D90238744440EA0940A0FBBF
:1003D8000289A4EB0A044C45C2464B4654D351D07B
:1003E800002E69D0B1EB0A0564EB030404FA0CFC97
:1003F800FD40FC404CEA0505C6E90054002747E7E4
:10040800C2F1200320FA03F7954001FA02F021FA1D
:1004180003F34FEA154E3843010CB3FBFEF71FFAFE
:1004280085F80EFB173341EA034107FB08F38B42BB
:1004380004FA02F407D9691807F1FF3C2FD28B425E
:100448002DD9023F2944CB1A81B2B3FBFEF00EFB33
:10045800103341EA034100FB08F38B4207D96918BE
:1004680000F1FF3C17D28B4215D902382944C91A2A
:1004780040EA07473BE73746304609E70746E7E6DD
:100488001846FBE64145ABD2B8EB020A69EB0E020F
:1004980001381346A4E76046E9E7184695E767463A
:1004A800D1E781467CE702382C4447E7ACF1020CDF
:1004B8002B442FE7384608E73746E9E6704700BF80
:1004C80010F8012B11F8013B012A28BF9A42F7D0F6
:1004D800D01A7047034613F8012B002AFBD1181ACB
:1004E8000138704710B504460E4B18784FF47A73EC
:1004F800B3FBF0F30C4A1068B0FBF3F000F0A8F877
:1005080068B90F2C01D901200AE0002221464FF0DA
:10051800FF3000F05DF8034B5C60002000E0012034
:1005280010BD00BF000000209800002008B50B4B4C
:100538001A6842F400721A601A6842F480621A60FB
:100548001A6842F480721A60032000F02FF8002025
:10055800FFF7C8FF01F042FA002008BD003C024046
:10056800034A1168034B1B780B441360704700BFA4
:10057800CC00002000000020014B1868704700BF25
:10058800CC00002038B50446FFF7F6FF0546B4F165
:10059800FF3F02D0044B1B781C44FFF7EDFF401BC4
:1005A800A042FAD338BD00BF00000020074AD36834
:1005B80023F4E0631B041B0C000200F4E060184302
:1005C80040F0BF6040F40030D060704700ED00E0BC
:1005D80030B4174BDB68C3F30223C3F10704042CC0
:1005E80028BF04241D1D062D18D9033B4FF0FF35E5
:1005F80005FA04F421EA0401994005FA03F322EA12
:100608000303194300280BDB0901C9B200F160405C
:1006180000F5614080F8001330BC70470023E5E71F
:1006280000F00F000901C9B2024B1954F4E700BFEA
:1006380000ED00E014ED00E000F01F024009012386
:100648009340024A42F82030704700BF00E100E0C2
:100658000138B0F1807F0AD2064B5860064AF02173
:1006680082F823100020986007221A607047012042
:10067800704700BF10E000E000ED00E090F8353072
:10068800DBB2022B03D0802343650120704705238A
:1006980080F835300268136823F0010313600020E6
:1006A8007047000000230F2B00F2D780F0B482B00F
:1006B80039E0072200E00022B2403A430234674E94
:1006C80046F82420664A1468EA4302EA04064F689A
:1006D80017F4803F01D045EA0406614C266064683F
:1006E80002EA04064F6817F4003F01D045EA040601
:1006F8005B4C6660A46802EA04064F6817F4801F22
:1007080001D045EA0406564CA660E46822404E68CB
:1007180016F4001F01D045EA0402514CE26001338F
:100728000F2B00F2978001229A400C6804EA020518
:10073800AA42F4D14C68022C01D0122C10D1DE0848
:10074800083650F826C003F00704A7000F24BC4061
:100758002CEA040C0C69BC4044EA0C0440F826401E
:1007680004685F000326BE40F64306EA040C4C68A2
:1007780004F00304BC4044EA0C0404604C6804F12F
:10078800FF3CBCF1010F03D9112C01D0122C10D160
:10079800846806EA040CCC68BC4044EA0C04846013
:1007A800446824EA02024C68C4F300149C401443D1
:1007B8004460C26816408A68BA403243C2604A68D8
:1007C80012F0805FABD000220192264A546C44F4A8
:1007D80080445464526C02F480420192019A9C084D
:1007E800A61C1E4A52F8267003F0030296000F2238
:1007F800B24027EA02071C4A90423FF45CAF02F578
:10080800806290421AD002F58062904218D002F5B8
:100818008062904216D002F58062904214D002F5B0
:100828008062904212D002F58062904210D002F5A8
:10083800806290423FF43DAF08223DE701223BE74A
:10084800022239E7032237E7042235E7052233E796
:10085800062231E702B0F0BC70477047003801400B
:10086800003C0140003802400000024012B909046F
:100878008161704781617047002800F0BB8170B5C5
:1008880082B00446036813F0010F3BD0A74B9B6866
:1008980003F00C03042B2CD0A44B9B6803F00C032F
:1008A800082B21D06368B3F5803F4FD0B3F5A02F54
:1008B80052D09E4B1A6822F480321A601A6822F4C9
:1008C80080221A606368002B50D0FFF755FE05465A
:1008D800964B1B6813F4003F14D1FFF74DFE401BE5
:1008E8006428F5D903208AE1904B5B6813F4800FE4
:1008F800D8D08E4B1B6813F4003F03D06368002BDD
:1009080000F07A81236813F0020F55D0874B9B685B
:1009180013F00C0F3ED0854B9B6803F00C03082B9B
:1009280033D0E368002B68D0814B01221A60FFF7AF
:1009380023FE05467D4B1B6813F0020F54D1FFF7C9
:100948001BFE401B0228F5D9032058E1774A13689B
:1009580043F480331360B5E7744B1A6842F480227D
:100968001A601A6842F480321A60ABE7FFF704FE97
:1009780005466E4B1B6813F4003FC3D0FFF7FCFD20
:10098800401B6428F5D9032039E1684B5B6813F4F0
:10099800800FC6D1654B1B6813F0020F04D0E368C3
:1009A800012B01D001202AE1604A136823F0F803E3
:1009B800216943EAC1031360236813F0080F40D08C
:1009C800636963B35B4B01221A60FFF7D5FD0546E7
:1009D800564B5B6F13F0020F33D1FFF7CDFD401B71
:1009E8000228F5D903200AE1504A136823F0F803D6
:1009F800216943EAC1031360DEE74D4B00221A6008
:100A0800FFF7BAFD0546494B1B6813F0020FD3D018
:100A1800FFF7B2FD401B0228F5D90320EFE0454B54
:100A280000221A60FFF7A8FD0546404B5B6F13F0E4
:100A3800020F06D0FFF7A0FD401B0228F5D90320BE
:100A4800DDE0236813F0040F79D0384B1B6C13F0EA
:100A5800805F33D100230193344B1A6C42F08052EB
:100A68001A641B6C03F080530193019B0125324BE0
:100A78001B6813F4807F23D0A368012B34D0052B87
:100A880038D02A4B1A6F22F001021A671A6F22F027
:100A980004021A67A368002B36D0FFF76DFD0646DF
:100AA800224B1B6F13F0020F48D1FFF765FD801B27
:100AB80041F288339842F3D90320A0E00025D6E715
:100AC8001D4A136843F480731360FFF755FD06460B
:100AD800194B1B6813F4807FCED1FFF74DFD801BA7
:100AE8000228F5D903208AE0104A136F43F0010366
:100AF8001367CFE70D4B1A6F42F004021A671A6F9B
:100B080042F001021A67C5E7FFF736FD0646074BB4
:100B18001B6F13F0020F11D0FFF72EFD801B41F25F
:100B280088339842F3D9032069E000BF00380240B7
:100B380000004742800E474200700040E5B9A369B3
:100B4800002B5BD0304A926802F00C02082A58D079
:100B5800022B17D02D4B00221A60FFF70DFD04461B
:100B6800294B1B6813F0007F42D0FFF705FD001BDF
:100B78000228F5D9032042E0234A136C23F080535E
:100B88001364DCE7214B00221A60FFF7F5FC0546E9
:100B98001D4B1B6813F0007F06D0FFF7EDFC401BD0
:100BA8000228F5D903202AE0E369226A1343626A1E
:100BB80043EA8213A26A5208013A43EA0243E26A0C
:100BC80043EA0263104A5360104B01221A60FFF790
:100BD800D3FC04460C4B1B6813F0007F06D1FFF7CB
:100BE800CBFC001B0228F5D9032008E0002006E012
:100BF800002004E001207047012000E0002002B03E
:100C080070BD0120FBE700BF00380240600047428A
:100C1800324B9B6803F00C03042B5CD0082B01D0EB
:100C28002F4870472DE9F04B2C4B5A6802F03F02D1
:100C38005B6813F4800F2BD0284B5B68C3F38813D1
:100C48001E4600275C010025E41A65EB0705A9018B
:100C580041EA9461A001001B61EB0501CB0043EA66
:100C68005073C400A01943EB07014B0243EAD05369
:100C78004402204619460023FFF7A2FA174B5B6887
:100C8800C3F3014301335B00B0FBF3F0BDE8F08B25
:100C9800124B5B68C3F388131E4600275C010025CE
:100CA800E41A65EB0705A90141EA9461A001001B5C
:100CB80061EB0501CB0043EA5073C400A01943EB74
:100CC80007018B0243EA9053840220461946002309
:100CD800FFF776FAD2E70348704700BF00380240B2
:100CE8000024F40000127A00002800F09D8070B5FE
:100CF80004464F4B1B6803F00F038B4209D2CBB25B
:100D08004B4A1370136803F00F038B4201D0012084
:100D180070BD236813F0020F17D013F0040F04D02E
:100D2800444A936843F4E0539360236813F0080F30
:100D380004D0404A936843F4604393603D4A936803
:100D480023F0F003A068034393600D46236813F073
:100D5800010F32D06368012B21D09A1E012A25D9B0
:100D6800344A126812F0020F60D032498A6822F0C1
:100D7800030213438B60FFF7FFFB06462D4B9B686E
:100D880003F00C036268B3EB820F16D0FFF7F4FB95
:100D9800801B41F288339842F0D90320B8E7254AEE
:100DA800126812F4003FE0D10120B1E7214A12682D
:100DB80012F0007FD9D10120AAE71D4B1B6803F070
:100DC8000F03AB4209D9EAB2194B1A701B6803F03A
:100DD8000F03AB4201D001209AE7236813F0040FF8
:100DE80006D0144A936823F4E053E1680B439360F8
:100DF800236813F0080F07D00E4A936823F4604362
:100E0800216943EAC1039360FFF702FF094B9B681E
:100E1800C3F30313084AD35CD840084B186000207A
:100E2800FFF760FB002073E70120704701206FE7A0
:100E3800003C024000380240701C00089800002066
:100E4800014B1868704700BF9800002008B5FFF7ED
:100E5800F7FF044B9B68C3F38223034AD35CD84053
:100E680008BD00BF00380240801C000808B5FFF725
:100E7800E7FF044B9B68C3F34233034AD35CD84073
:100E880008BD00BF00380240801C00080268D36813
:100E980023F49073D3600268536923F0010353610C
:100EA800202380F83A30704790F83930DBB2212B94
:100EB8002AD18368B3F5805F16D0036A5A1C026290
:100EC8001A7803685A60C38C013B9BB2C384EBB9A0
:100ED8000268D36823F08003D3600268D36843F0C4
:100EE8004003D36000207047036A1B880268C3F37D
:100EF8000803536003691BB9036A02330362E2E71C
:100F0800036A01330362DEE702207047002070475E
:100F18002DE9F843044601680A6922F44052C3687F
:100F280013430B610168CA6822F4164222F00C02CE
:100F380083680069034360690343E069034313431B
:100F4800CB6021684A6922F44072A36913434B615C
:100F5800E369B3F5004F60D02368B84A934200F0C4
:100F6800148102F58062934200F00F81FFF76EFF53
:100F780000EB800000EB80006568AD00B0FBF5F584
:100F8800AF4FA7FB05356D092E01FFF75FFF00EB9B
:100F9800800000EB80006568AD00B0FBF5F9FFF755
:100FA80055FF00EB800000EB80006568AD00B0FBEA
:100FB800F5F5A7FB05356D094FF0640808FB159595
:100FC8002D013235A7FB05356D0905F0F0053544CF
:100FD800FFF73CFF00EB800000EB80006668B6007E
:100FE800B0FBF6F6FFF732FF00EB800000EB800065
:100FF80063689B00B0FBF3F0A7FB0030400908FBD7
:1010080010684FEA081808F13208A7FB0837C7F339
:10101800431723682F449F600DE12368874A934252
:101028005BD002F58062934257D0FFF70FFF00EBC9
:10103800800000EB800065686D00B0FBF5F5804F1F
:10104800A7FB05356D092E01FFF700FF00EB8000B7
:1010580000EB800065686D00B0FBF5F9FFF7F6FE60
:1010680000EB800000EB800065686D00B0FBF5F5D3
:10107800A7FB05356D094FF0640808FB1595ED00D1
:101088003235A7FB05356D096D0005F4F875354453
:10109800FFF7DCFE00EB800000EB8000666876005E
:1010A800B0FBF6F6FFF7D2FE00EB800000EB800005
:1010B80063685B00B0FBF3F3A7FB03235B0908FB42
:1010C80013684FEAC80808F13208A7FB0837C7F3C6
:1010D800421723682F449F60ADE0FFF7C7FE00EB7F
:1010E800800000EB800065686D00B0FBF5F5544F9B
:1010F800A7FB05356D092E01FFF7B8FE00EB800050
:1011080000EB800065686D00B0FBF5F9FFF7AEFEF7
:1011180000EB800000EB800065686D00B0FBF5F522
:10112800A7FB05356D094FF0640808FB1595ED0020
:101138003235A7FB05356D096D0005F4F8753544A2
:10114800FFF794FE00EB800000EB800066687600F5
:10115800B0FBF6F6FFF78AFE00EB800000EB80009C
:1011680063685B00B0FBF3F3A7FB03235B0908FB91
:1011780013684FEAC80808F13208A7FB0837C7F315
:10118800421723682F449F6055E0FFF76FFE00EB7E
:10119800800000EB80006568AD00B0FBF5F5284FD6
:1011A800A7FB05356D092E01FFF760FE00EB8000F7
:1011B80000EB80006568AD00B0FBF5F9FFF756FE5F
:1011C80000EB800000EB80006568AD00B0FBF5F532
:1011D800A7FB05356D094FF0640808FB15952D012F
:1011E8003235A7FB05356D0905F0F0053544FFF7E5
:1011F8003DFE00EB800000EB80006668B600B0FBA7
:10120800F6F6FFF733FE00EB800000EB8000636822
:101218009B00B0FBF3F0A7FB0030400908FB106807
:101228004FEA081808F13208A7FB0837C7F3431735
:1012380023682F449F60BDE8F88300BF0010014079
:101248001F85EB5158B310B5044690F839300BB3ED
:10125800242384F839302268D36823F40053D360F8
:101268002046FFF755FE2268136923F49043136163
:101278002268536923F02A0353612268D36843F430
:101288000053D3600020E063202384F8393084F8C9
:101298003A3010BD80F8383000F0BCFBD8E70120A8
:1012A800704790F83930DBB2202B16D1B9B1C2B1F2
:1012B80090F83830012B16D001628284C284002352
:1012C800C363212280F8392080F838300168CA6861
:1012D80042F08002CA601846704702207047012019
:1012E8007047012070470220704790F83A30DBB20F
:1012F800202B1BD1E1B1EAB190F83830012B1BD07B
:1013080081628285C2850023C363222280F83A2045
:1013180080F8383001684A6942F001024A61016880
:10132800CA6842F49072CA60184670470220704733
:10133800012070470120704702207047704708B5A8
:101348000168CB6823F04003CB60202380F8393054
:10135800FFF7F4FF002008BD08B590F83A30DBB27B
:10136800222B40D18368B3F5805F0ED0036903BB9D
:1013780003685A68836A591C81621A70C38D013BDD
:101388009BB2C385F3B100202EE0826A036943B99A
:1013980003685B68C3F308031380836A02338362BC
:1013A800ECE703685B68DBB21380836A013383620E
:1013B800E4E703685B68826A511C816203F07F037B
:1013C8001370DBE70268D36823F49073D360026874
:1013D800536923F001035361202380F83A3000F069
:1013E80013F9002000E0022008BD704710B504463C
:1013F80002681368D168526913F00F0005D113F021
:10140800200F02D011F0200F53D1002867D012F01E
:10141800010202D111F4907F61D013F0010F06D0C0
:1014280011F4807F03D0E06B40F00100E06313F01B
:10143800040F04D01AB1E06B40F00200E06313F02F
:10144800020F04D01AB1E06B40F00400E06313F01F
:10145800080F04D01AB1E26B42F00802E263E26BB3
:10146800002A48D013F0200F02D011F0200F24D109
:1014780023685B6903F04003E26B12F0080F00D1A8
:101488003BB32046FFF702FD23685A6912F0400F6C
:101498001BD05A6922F040025A61636B8BB11A4A19
:1014A8001A65606BFFF7EAF828B3606B036D98471D
:1014B80021E02046FFF750FF1DE02046FFF74CFFD4
:1014C800D6E72046FFF791FF15E02046FFF78DFF8E
:1014D80011E02046FFF789FF0023E3630BE013F0D8
:1014E800800F02D011F0800F06D113F0400F02D008
:1014F80011F0400F04D110BD2046FFF7D5FCFAE7E4
:101508002046FFF71CFFF6E71515000808B5806BA5
:101518000023C385C384FFF768FF08BD30B58BB0CF
:1015280000240594069407940894099401941E4B8A
:101538001A6B42F080021A631A6B02F08002019261
:10154800019A02941A6B42F001021A631A6B02F0B4
:1015580001020292029A03941A6B42F008021A637B
:101568001A6B02F008020392039A04941A6B42F071
:1015780004021A631B6B03F004030493049B0B4DD2
:1015880022464FF440512846FFF770F94FF4405374
:101598000593012306930794089405A92846FFF7A5
:1015A80081F80BB030BD00BF00380240000C02408B
:1015B80008B50848084B03604FF4165343600023EE
:1015C8008360C36003610C2242618361C361FFF7DA
:1015D80039FE08BDD00000200048004008B5084882
:1015E800084B03604FF4E133436000238360C3601A
:1015F80003610C2242618361C361FFF723FE08BDCA
:101608003C02002000440040F8B50368604A934259
:1016180004D0604A934200F09780F8BD5E4B1B6887
:10162800022B0AD05C4B1B68032B2FD05B4BDA8A4A
:101638005B495C48FFF759FEEFE7594B1A78242AB3
:1016480015D0564B1B68002BECDD5749CA540133A3
:10165800524A1360062BE5D1111D5348FEF730FF9F
:101668000028DFD04D4B4FF0FF321A60DAE74B4BC2
:101678001B68B3F1FF3F03D0474B03221A60D1E741
:10168800494B1A70454B01221A60CBE7464BDB7970
:10169800424AD3722C2B03D13F4B02221A60C5E772
:1016A8003E4B1A7B4FF480514048FFF7DFF83A4B26
:1016B80007225A60384B5B683B4AD05C2C2808D01C
:1016C80035498A683A4CA05401328A6001334B602C
:1016D800F0E7581C304A9168334C245C3448445431
:1016E8000333D3600021916053602B4B5B682E4A13
:1016F800D05C2C2808D028498A682E4CA054013286
:101708008A6001334B60F0E70133234DAA6826490C
:10171800CB5C284FBB540023AB60274C24492046A0
:1017280000F086FA1D4E06F11001204600F080FAFE
:101738003946204600F07CFA06F11401204600F0F4
:1017480077FA04232B6071E7134B1B68012B7FF496
:1017580064AF1A4BDB78432B7FF45FAF174B1B79D1
:101768004D2B7FF45AAF154B5B79472B7FF455AF60
:10177800124B9B79522B7FF450AF084B1A7B4FF4D6
:1017880000510A48FFF772F8034B02221A6044E737
:101798000048004000440040B80000200800002035
:1017A80038020020D000002060010020000C024018
:1017B8007C02002028020020100100208C0200205A
:1017C80030B595B03022002108A800F029FA00248D
:1017D8000394049405940694079401941B4B1A6C83
:1017E80042F080521A641B6C03F080530193019BF2
:1017F8000294174B1A6842F480421A601B6803F47B
:1018080080430293029B012308934FF4803309938A
:1018180002250E954FF480030F9304231093A822FA
:1018280011921295139308A8FFF726F80F23039334
:10183800049505944FF4A05306934FF480530793EF
:10184800052103A8FFF750FA15B030BD0038024053
:101858000070004080B5FEF769FEFFF7B1FFFFF7A3
:101868005DFEFFF7A5FEFFF7B9FE524D524C05226B
:1018780005F118012046FFF714FDC820FEF782FE87
:101888004E4E0B2231462046FFF72FFD05F120076B
:101898003846FEF71FFE82B239462046FFF701FDA3
:1018A800C820FEF76FFE062231462046FFF71DFDD1
:1018B80005F124073846FEF70DFE82B23946204668
:1018C800FFF7EFFCC820FEF75DFE062231462046F2
:1018D800FFF70BFD05F130073846FEF7FBFD82B236
:1018E80039462046FFF7DDFCC820FEF74BFE0622EE
:1018F80031462046FFF7F9FC05F144073846FEF764
:10190800E9FD82B239462046FFF7CBFC1F2231465B
:101918002046FFF7EAFC2A4B02221A60EA8A294984
:101928002948FFF7E2FC03E0254B1B68042B17D07E
:10193800234B1B68012BF7D1244D2846FEF7CAFD1F
:101948001D4C82B229462046FFF7ABFC0F221B49EB
:101958002046FFF7CAFC4FF4FA70FEF713FEE3E7E0
:101968001B4D2846FEF7B6FD134C82B22946204689
:10197800FFF797FCC820FEF705FE164D2846FEF730
:10198800A9FD82B229462046FFF78BFCC820FEF746
:10199800F9FD0B4C104D227C4FF480512846FEF780
:1019A80065FF227C4FF400512846FEF75FFF0123B4
:1019B8002360BDE7080000203C0200208C020020C4
:1019C800B800002038020020D00000206400002069
:1019D8007000002010010020000C024082B000219D
:1019E80000910B4B5A6C42F480425A645A6C02F4D0
:1019F80080420092009A01911A6C42F080521A6457
:101A08001B6C03F080530193019B02B0704700BF29
:101A18000038024010B58AB0002305930693079357
:101A2800089309930368314A934204D0304A934299
:101A38002ED00AB010BD002401942E4B1A6C42F42B
:101A480000321A641A6C02F400320192019A02946C
:101A58001A6B42F001021A631B6B03F00103029335
:101A6800029B0C2305930223069301230793032368
:101A780008930723099305A91F48FEF713FE22467A
:101A880021462620FEF7A4FD2620FEF7D5FDD0E747
:101A980000240394174B1A6C42F480221A641A6CBF
:101AA80002F480220392039A04941A6B42F004020F
:101AB8001A631B6B03F004030493049B4FF4406305
:101AC800059302230693012307930323089307230F
:101AD800099305A90948FEF7E5FD22462146272076
:101AE800FEF776FD2720FEF7A7FDA2E70044004099
:101AF8000048004000380240000002400008024050
:101B08007047FEE7FEE7FEE7FEE77047704770475D
:101B180008B5FEF725FD08BD08B50248FFF766FCC5
:101B280008BD00BF3C02002008B50248FFF75EFC74
:101B380008BD00BFD00000200F49D1F8883043F419
:101B48007003C1F888300D4B1A6842F001021A6020
:101B5800002098601A6822F0847222F480321A6099
:101B6800074A5A601A6822F480221A60D8604FF037
:101B780000638B60704700BF00ED00E00038024052
:101B880010300024DFF834D0002103E00C4B5B5800
:101B9800435004310B480C4B42189A42F6D30B4A77
:101BA80002E0002342F8043B094B9A42F9D3FFF7BD
:101BB800C3FF00F011F8FFF74DFE70470000022048
:101BC800981C0008000000209C0000209C000020B9
:101BD800F0020020FEE7000070B50D4E0D4CA41B6E
:101BE800A4100025A54209D10B4E0C4C00F030F88A
:101BF800A41BA4100025A54205D170BD56F82530B8
:101C080098470135EEE756F8253098470135F2E751
:101C1800901C0008901C0008901C0008941C0008E8
:101C280002440346934200D1704703F8011BF9E7C9
:101C380010B503461A785C1C3AB9013B11F8012B20
:101C480003F8012F002AF9D110BD2346F2E700005E
:101C5800F8B500BFF8BC08BC9E467047F8B500BF91
:081C6800F8BC08BC9E46704761
:101C7000000000000000000001020304060708093C
:081C8000000000000102030452
:081C880070E5FF7F0100000080
:041C9000AD0100089A
:041C940089010008BA
:101C98000100000010000000FFFFFFFF244750472D
:101CA8004C4C003101000000200000001A00010027
:101CB800415445300D00000041540D0041542B4360
:101CC8004D47463D310D000041542B434E4D493D93
:101CD800312C312C302C302C300D000041542B434A
:101CE800504D533D22534D222C22534D222C22532A
:101CF8004D220D0041542B434D47523D310D0000FC
:101D080041542B434D47533D222B3438373830311B
:101D18003232333134220D0041542B434D47443D78
:0C1D2800312C340D070000000024F400F2
:0400000508001B8D47
:00000001FF
